:020000040800F2
:10000000F8040024AD020008A32400088F23000890
:10001000A1240008E10300088B3400080000000060
:10002000000000000000000000000000352D000866
:10003000E303000800000000A5240008372D000895
:10004000C7020008C7020008C7020008C70200086C
:10005000C7020008C7020008C7020008C70200085C
:10006000C7020008C7020008C7020008C70200084C
:10007000C7020008C7020008C7020008C70200083C
:10008000C7020008C7020008C7020008C70200082C
:10009000C7020008C7020008C7020008C70200081C
:1000A000C7020008C7020008C7020008C70200080C
:1000B000C7020008C7020008C7020008C7020008FC
:1000C000C7020008C7020008C7020008C7020008EC
:1000D000C7020008C7020008C7020008C7020008DC
:1000E000C7020008C702000800000000C70200089D
:1000F000C7020008C7020008C7020008C7020008BC
:10010000C7020008C7020008C7020008C7020008AB
:10011000C7020008C7020008C7020008C70200089B
:10012000C7020008C7020008C7020008C70200088B
:10013000C7020008C7020008C7020008C70200087B
:1001400000000000000000000000000000000000AF
:10015000C7020008C7020008C7020008C70200085B
:10016000C7020008C7020008C7020008C70200084B
:10017000C7020008C7020008C7020008C70200083B
:10018000C7020008C7020008C7020008C70200082B
:10019000C7020008C7020008C7020008C70200081B
:1001A000C7020008C7020008C7020008C70200080B
:1001B000C7020008C7020008C7020008C7020008FB
:1001C000C7020008C7020008C7020008C7020008EB
:1001D000C7020008C7020008C7020008C7020008DB
:1001E000C7020008C7020008C7020008C7020008CB
:1001F000C7020008C7020008C7020008C7020008BB
:10020000C7020008C7020008C7020008C7020008AA
:10021000C7020008C7020008C7020008C70200089A
:10022000C7020008C7020008C7020008000000005B
:10023000C7020008C702000800000000C70200084B
:10024000C7020008C7020008C7020008C70200086A
:10025000C7020008C7020008C7020008C70200085A
:10026000C7020008C7020008C7020008C70200084A
:10027000C7020008C7020008C7020008000000000B
:10028000C7020008C7020008C702000800000000FB
:1002900000000000C7020008DFF80CD000F08EF864
:1002A00000480047C5370008F80400240648804786
:1002B00006480047FEE7FEE7FEE7FEE7FEE7FEE74B
:1002C000FEE7FEE7FEE7FEE7CD2D000899020008F5
:1002D0002DE9F05F0546002092469B46884606467B
:1002E000814640241BE0284641464746224600F00E
:1002F00054F853465A46C01A914110D31146184635
:10030000224600F03BF82D1A67EB01084F462246C3
:100310000120002100F032F817EB00094E41201EA9
:10032000A4F10104DFDC484631462A464346BDE8D5
:10033000F09F00000649074A0868504343F239021B
:100340001044086040087047014908607047000089
:10035000140000246D4EC641D2B201E000F8012B1A
:10036000491EFBD270470022F6E710B513460A4635
:1003700004461946FFF7F0FF204610BD202A04DB93
:10038000203A00FA02F1002070479140C2F12003A8
:1003900020FA03F3194390407047202A04DB203AE7
:1003A00021FA02F00021704721FA02F3D040C2F195
:1003B000200291400843194670470000064C074D43
:1003C00006E0E06840F0010394E807009847103425
:1003D000AC42F6D3FFF764FF5C3900087C390008B3
:1003E000FEE7704772B6FEE770B5044600F02AF9E2
:1003F0000546601C02D004480078044400F022F94D
:10040000401BA042FAD370BD080000242DE9F84F2C
:1004100003247D4D00234FF001094FF0B04B4FF006
:100420000F0AE9E009FA03F73A4076D00E7906F0B0
:100430000306012E01D0022E18D1D0F808C04FEAD1
:10044000430ECE6804FA0EF82CEA080C06FA0EF6F3
:1004500046EA0C068660D0F804C00E792CEA070C38
:10046000C6F300169E4046EA0C0646600E79F64337
:10047000B6070BD0C6684FEA43088F6804FA08FC39
:1004800026EA0C0607FA08F73743C7600E7906F02C
:100490000306022E12D1DE080F694FEA437C00EBFF
:1004A0008606B646366A4FEADC6C0AFA0CF807FA9A
:1004B0000CF726EA08063743CEF820700F79066855
:1004C0004FEA430807F0030704FA08FC07FA08F7A5
:1004D00026EA0C06374307604E6816F4403F1CD0EE
:1004E0004A4E376847F00207376036689F0706F0C4
:1004F0000206009623F0030606F1B046B6463F0F0B
:10050000D6F80864DFF808810AFA07FC404526EAB5
:100510000C0603D14FF0000C41E06CE0DFF8F4C0B2
:10052000604502D14FF0010C39E0DFF8ECC06045C6
:1005300002D14FF0020C32E0DFF8E0C0604502D19A
:100540004FF0030C2BE0DFF8D8C0604502D14FF02C
:10055000040C24E0DFF8CCC0604502D14FF0050C5C
:100560001DE0DFF8C4C0604502D14FF0060C16E074
:10057000DFF8B8C0604502D14FF0070C0FE0DFF89C
:10058000B0C0604502D14FF0080C08E0DFF8A4C00D
:10059000604502D14FF0090C01E04FF00A0C0CFA53
:1005A00007FC4CEA060CCEF808C44F68DBF8006084
:1005B000FF0226EA020600D516435F46CBF800602C
:1005C000D1F804C0DBF804605FEA8C2C26EA02064E
:1005D00000D516437E606E684F6826EA0206BF03A8
:1005E00000D516436E602E684F6826EA0206FF03A8
:1005F00000D516432E605B1C0A6832FA03F67FF4BE
:1006000011AFBDE8F88F000080000058F444025894
:10061000000002580004025800080258000C02585A
:10062000001002580014025800180258001C02580A
:10063000002002580024025801480068000C70474E
:100640000010005C0148806870470000080000242A
:1006500002488168027811448160704708000024D4
:10066000032010B500F078F801F008FA0F4A10499D
:1006700014681368C4F3032203F00F038A5CC95C97
:1006800002F01F0201F01F01D0400A4A20FA01F1D6
:100690001160094908600F2000F010F808B101202E
:1006A00010BD00F02BF8002010BD000018440258C7
:1006B00024390008040000240000002470B50D4D0A
:1006C00004462878A0B14FF47A71B1FBF0F00A49E2
:1006D0000968B1FBF0F001F005FD48B9102C07D214
:1006E00000222146501E00F017F800206C6070BDFB
:1006F000012070BD0800002400000024054808B552
:10070000016841F002010160006800F00200009001
:1007100008BD0000F44402580E4BF0B41B680D46AF
:10072000C3F30223C3F10706042E00D90426191DC2
:10073000072901D2002300E0DB1E012404FA06F1A0
:100740009C40491E2940641E994014402143F0BC3E
:1007500002F0ACBE0CED00E0064900F0070210B557
:100760004FF6FF040868044B204040EA022018437B
:10077000086010BD0CED00E00000FA05134970B5EB
:100780000A68D243520705D5096801F00701814282
:1007900013D118E00A6822F0070202430A60FFF74B
:1007A00051FF0A4D4FF47A760446083D07E000BF3A
:1007B000FFF748FF001BB04201D9012070BD286837
:1007C000C0438004F4D4002070BD00000C480258DF
:1007D0002DE9F84F1E4615468A460446FFF732FFBC
:1007E000814694F8400001280ED001274FF0000800
:1007F00084F8407094F84100012807D05FF00200AF
:1008000084F84080BDE8F88F0220FBE74221C4F85D
:10081000448084F84110002220214B462046009657
:1008200002F0B6F80028EBD12168286888622168B8
:10083000686848622168A868C862206829690268F7
:1008400022F4400242F4800211430160E9684FF053
:1008500000622046CAF82810514601F07FFE0122AE
:100860004B4608212046009602F092F80028C7D196
:1008700022680821D16084F84170C1E72DE9F84F62
:1008800017468B460446FFF7DDFE824694F840008B
:1008900001280ED001264FF0000884F8406094F83B
:1008A0004100012807D0022584F840802846BDE891
:1008B000F88F0220FBE74FF00209C4F8448084F867
:1008C00041900022202153462046009702F060F814
:1008D0000500E9D100225946204601F03FFEDBF831
:1008E000240058B90122534602212046009702F005
:1008F0004FF80500D8D12168C1F80C9084F8416008
:10090000D2E70000F8B50446FFF79CFE05461CB18F
:1009100094F8410010B107E00120F8BD204600F036
:1009200047F841F28830A06420686FF0FF02A168A8
:10093000036802EB012223F4706111430160A06C93
:10094000002220212B460090204602F021F80028AA
:10095000E3D12268D4E907352679E168176845EACA
:100960000665DFF844C01943104B294300250126D2
:1009700007EA0C07394311602268D4E90517B4F877
:1009800010C0D2F804E039430EEA030E4EEA0C43DD
:100990001943516021680A6842F001020A606564E7
:1009A00084F84160F8BD00002FFFFF00FEF8E0FF73
:1009B000F0B5B5B0044614212FA8FFF7D4FCBC2134
:1009C0006846FFF7D0FC30492068884259D14FF083
:1009D0000070009000246846129400F071FA08B18B
:1009E000FFF700FD2948016841F48041016000687B
:1009F00000F48040349025480C30016841F010012B
:100A00000160016801F010013491016841F00201B8
:100A10000160016801F002013491016841F00801B0
:100A200001600068022504272F9700F00800329427
:100A30000926CDE93054CDE9336015482FA9FFF7D9
:100A4000E5FC2F972FA9134FCDE93054CDE932465D
:100A50003846FFF7DBFC4FF460502F900E482FA96B
:100A6000CDE93054CDE93246FFF7D0FC0A214020D1
:100A70002F90CDE93054CDE932412FA93846FFF708
:100A8000C5FC35B0F0BD000000500052D4440258FF
:100A90000010025800040258000C02582DE9F84FCB
:100AA00015460E460446FFF7CDFD82462068816953
:100AB00094F8403000F12009012B0DD001274FF0B0
:100AC000000884F8407094F84120012A06D00220E2
:100AD00084F84080BDE8F88F0220FBE7C4F844802A
:100AE000A6B3222284F841200269521CA263026943
:100AF000521C62632663426922F0406242F08062C7
:100B00004261206881610EE00621204601F040FF2D
:100B1000C8B999F80000216B0870206B401C206355
:100B2000A06B401EA063A06B53464FF001020095DE
:100B30000028E9D14FF00201204601F029FF10B949
:100B400022680221D16084F84170C1E7FFE7616C3F
:100B5000012041F008016164BAE700002DE9F84F77
:100B600015460E460446FFF76DFD94F84010824688
:100B70002068012900F120090ED001274FF000085C
:100B800084F8407094F84110012907D05FF002000A
:100B900084F84080BDE8F88F0220FBE7C4F8448069
:100BA00086B3122184F841100169491CE162016990
:100BB000491CA1626662416921F0406141610EE019
:100BC0000421204601F0E4FEC8B9606A017889F882
:100BD0000010606A401C6062E06A401EE062E06AE9
:100BE00053464FF0010200950028E9D14FF0020171
:100BF000204601F0CDFE10B922680221D16084F8B0
:100C00004170C5E7FFE7616C012041F008016164B4
:100C1000BEE7000010B500F0EBFE05490968054A83
:100C2000C1F30211515C01F01F01C84010BD00006A
:100C30002044025824390008494930B5484C0B1D5E
:100C40000A68143409681D68246802F00303C5F3B8
:100C50000012C1F30531C4F3CC04002914FB02F2E5
:100C600000EE102AF8EE400A75D03F4A9FED3D1A7B
:100C7000B7EE000A6BB1DFED3D1A012B01D0022B5C
:100C800064D002EE101A1168F8EE422A81EEA22A10
:100C900021E0334C283C23689B0612D5344B246852
:100CA00001EE901A1168C4F3C104F8EE612AE34022
:100CB00001EE903AC1F30801F8EE611A81EEA22A22
:100CC0000BE001EE901ADFED2B2A00BFF8EE611A5F
:100CD000116882EEA12AC1F3080101EE901A116891
:100CE000F8EE611A40EE811A71EE800A62EE200A77
:100CF000C1F3462101EE101AB8EE411A31EE001A86
:100D0000C0EE811ABCEEE11A80ED001A1168C1F341
:100D1000064101EE101AB8EE411A31EE001AC0EE8B
:100D2000811ABCEEE11A80ED011A1168C1F3066167
:100D300001EE101AB8EE411A31EE000A80EE801A68
:100D4000BCEEC10A80ED020A30BD04E001EE901A4B
:100D5000DFED092ABAE70021016041608160F3E715
:100D60002844025800000039384402580024744ACC
:100D70000090D0030024744C20BCBE4B494930B5D0
:100D8000484C0B1D0A681C3409681D68246802F071
:100D90000303C5F30022C1F30551C4F3CC040029B9
:100DA00014FB02F200EE102AF8EE400A75D03F4A1A
:100DB0009FED3D1AB7EE000A6BB1DFED3D1A012B36
:100DC00001D0022B64D002EE101A1168F8EE422A0C
:100DD00081EEA22A21E0334C283C23689B0612D5E1
:100DE000344B246801EE901A1168C4F3C104F8EE84
:100DF000612AE34001EE903AC1F30801F8EE611A6E
:100E000081EEA22A0BE001EE901ADFED2B2A00BF43
:100E1000F8EE611A116882EEA12AC1F3080101EE11
:100E2000901A1168F8EE611A40EE811A71EE800A8C
:100E300062EE200AC1F3462101EE101AB8EE411A03
:100E400031EE001AC0EE811ABCEEE11A80ED001AF4
:100E50001168C1F3064101EE101AB8EE411A31EEE5
:100E6000001AC0EE811ABCEEE11A80ED011A116879
:100E7000C1F3066101EE101AB8EE411A31EE000A14
:100E800080EE801ABCEEC10A80ED020A30BD04E09B
:100E900001EE901ADFED092ABAE7002101604160F6
:100EA0008160F3E7284402580000003940440258AA
:100EB0000024744A0090D0030024744C20BCBE4B24
:100EC0002DE9FC5F044650F8241B002500902E46B7
:100ED0000801FE4FDFF8F8831DD5606E50B1B0F504
:100EE000801F0CD0B0F5001F0ED0B0F5401F1DD0F4
:100EF00001250FE0386840F40030386016E0022128
:100F0000201D01F0F7FD03E00098022101F082FEB0
:100F100005000BD02E462088C00523D5606D05281E
:100F20001ED2DFE800F00C11161B1B00626ED8F811
:100F3000001021F440111143C8F80010EBE73868A5
:100F400040F40030386009E00021201D01F0D2FD9E
:100F500003E00098002101F05DFE05466DB100E060
:100F600001252E462088800528D5A06D80281ED01A
:100F70000CDC90B140280ED114E0626DD8F800105E
:100F800021F007011143C8F80010EBE7C02813D087
:100F9000B0F5807F10D001250FE0386840F40030B4
:100FA000386009E00021201D01F0A4FD03E0009855
:100FB000002101F02FFE054695B12E462088DFF86E
:100FC0001093400509F108092CD5D4F8A400B0F518
:100FD000800F20D00DDCA0B1B0F5001F0FD115E0BF
:100FE000A26DD8F8001021F4E0711143C8F8001088
:100FF000E4E7B0F5C00F13D0B0F5000F10D0012515
:101000000FE0386840F40030386009E00021201D0E
:1010100001F070FD03E00098002101F0FBFD0546A2
:1010200075B12E46208800052DD5D4F8A800B0F162
:10103000007F21D00EDCA8B1B0F1807F10D116E086
:10104000D4F8A420D9F8001021F460011143C9F8A4
:101050000010E7E7B0F1407F13D0B0F1806F10D0FF
:1010600001250FE0386840F40030386009E00021C5
:10107000201D01F03FFD03E00098002101F0CAFDB2
:1010800005466DB12E46206880011FD5A06CD8B1F1
:1010900010280FD0202812D0302815D0012514E0B8
:1010A000D4F8A820D9F8001021F0E0611143C9F864
:1010B0000010E8E7386840F40030386004E00221AE
:1010C000201D01F017FD05466DB12E462088C00495
:1010D0002BD5E06DB0F5005F20D00DDCA0B1B0F5F0
:1010E000805F0FD115E07A48A26C001F016821F0E3
:1010F000300111430160E9E7B0F5405F13D0B0F56E
:10110000804F10D001250FE0386840F4003038607F
:1011100009E00021201D01F0EDFC03E00098002112
:1011200001F078FD054685B12E462088800429D53A
:10113000206EB0F5403F23D010DC08B3B0F5803FFF
:1011400014D0B0F5003F0FD115E0E26DD8F80010D3
:1011500021F4E0411143C8F80010E6E7B0F5802F14
:101160000ED0B0F5A02F0BD001250AE00121201DE3
:1011700001F0C0FC03E00098012101F04BFD0546A1
:101180008DB12E46208840042AD5D4F8AC00B0F1A9
:10119000405F23D010DC08B3B0F1805F14D0B0F111
:1011A000005F0FD115E0226ED8F8001021F4E02185
:1011B0001143C8F80010E5E7B0F1804F0ED0B0F150
:1011C000A04F0BD001250AE00121201D01F092FC67
:1011D00003E00098012101F01DFD05466DB12E468A
:1011E000208800041FD5E06ED8B1B0F1805F0ED02A
:1011F000B0F1005F10D0012514E0D4F8AC20D9F88C
:10120000001021F0E0411143C9F80010E8E7386808
:1012100040F40030386004E00121201D01F06AFC38
:1012200005466DB12E462068C0011ED5606CD0B158
:1012300001280ED0022811D0032814D0012513E074
:10124000E26ED8F8001021F040511143C8F80010A8
:10125000E9E7386840F40030386004E00221201DDE
:1012600001F048FC054685B12E462068DFF85CB0E9
:101270004002ABF11C0B57D51648016841F4807150
:101280000160FFF7DFF982460EE01148626C001F33
:10129000016821F0030111430160E6E7FFF7D2F98D
:1012A000A0EB0A0064283DD80A480068C005F5D5BF
:1012B0007DBBDFF81CA0B4F8B0200AF1200ADAF8F0
:1012C000001002F4407001F4407105E02C44025813
:1012D0005044025800480258814211D0DAF80010F8
:1012E000DAF8002021F4407142F48032CAF800207C
:1012F000DAF8002022F48032CAF80020CAF8001080
:10130000D4F8B000B0F5807F21D1FFF79BF90190B0
:1013100019E008E0FFF796F90199411A41F2883087
:10132000814210D903252E462078DFF844A4C00757
:101330003DD0A06F182838D026DC80B3082829D0EB
:10134000102825D12CE0DAF800008007E2D5D4F887
:10135000B010C1F30120032858460DD0016821F4D4
:101360007C510160B4F8B020DAF80010C2F30B022F
:101370001143CAF80010D7E7FE4A036802EA1112C7
:1013800023F47C511143ECE720280ED028280CD000
:1013900001250BE00121201D01F0ACFB04E004E07D
:1013A0000098012101F036FC05465DB12E462078FB
:1013B00080071ED5606F062819D2DFE800F0160CF2
:1013C00011161616A26FDAF8001021F03801114339
:1013D000CAF80010EBE70121201D01F08BFB03E0B0
:1013E0000098012101F016FC054675B100E00125C9
:1013F0002E46207840071FD5D4F89000062819D231
:10140000DFE800F0160C11161616626FDAF80010FD
:1014100021F007011143CAF80010EAE70121201D5D
:1014200001F068FB03E00098012101F0F3FB0546A1
:101430009DB100E001252E46207880062BD5D4F8FA
:101440008C00B0F1405F24D011DC10B3B0F1805FAC
:1014500015D0B0F1005F10D116E0D4F89020D9F883
:10146000001021F007011143C9F80010E4E7B0F1C2
:10147000804F0ED0B0F1A04F0BD001250AE0002123
:10148000201D01F037FB03E00098022101F0C2FBB0
:1014900005468DB12E46207840062BD5D4F898000D
:1014A000B0F5406F24D011DC10B3B0F5806F15D0CB
:1014B000B0F5006F10D116E0D4F88C20DAF80010E7
:1014C00021F0E0411143CAF80010E4E7B0F5805F75
:1014D0000ED0B0F5A05F0BD001250AE00021201D41
:1014E00001F008FB03E00098022101F093FB0546A0
:1014F0008DB12E46207800062BD5D4F89C00B0F58F
:10150000C04F24D011DC10B3B0F5005F15D0B0F59A
:10151000804F10D116E0D4F89820D9F8001021F4AB
:10152000E0511143C9F80010E4E7B0F5004F0ED0C8
:10153000B0F5204F0BD001250AE00021201D01F05D
:10154000D9FA03E00098022101F064FB05464DB191
:101550002E46207800071ED5D4F88000B0F5805FB5
:101560000AD00FE0D4F89C20D9F8001021F4604193
:101570001143C9F80010ECE70098022101F04AFB82
:1015800000B10126D4F88020DAF8001021F440518F
:101590001143CAF800102078C00613D5D4F894007F
:1015A000B0F5807F05D10098022101F033FB00B136
:1015B0000126D4F89420D9F8001021F44071114389
:1015C000C9F800102068000316D5D4F8A00038B17F
:1015D000B0F5803F09D0B0F5003F0BD001250AE0FF
:1015E0000021201D01F086FA03E00098022101F09D
:1015F00011FB054685B12E462068400322D5D4F85C
:101600008400B0F5801F11D0B0F5001F13D0B0F5E5
:10161000401F15D0012514E0D4F8A020D9F80010FF
:1016200021F440311143C9F80010E5E7386840F46F
:101630000030386004E00098012101F0EBFA054623
:1016400055B12E462068C0031CD5E06C70B1B0F5D2
:10165000803F10D0012514E0D4F88420DAF800107F
:1016600021F440111143CAF80010EBE7386840F448
:101670000030386004E00221201D01F03BFA0546ED
:10168000CDB12E462068800005D50098022101F0DA
:10169000C1FA00B10126206880031BD5E06FB8B104
:1016A000B0F5807F10D0B0F5007F11D0B0F5407F4D
:1016B0000ED001250DE02E48E26C0838016821F4B7
:1016C000803111430160DDE7386840F40030386054
:1016D000F5B32E462068C00207D5226FD8F8001057
:1016E00021F000411143C8F800102068C00008D55F
:1016F000D4F8B420DBF8001021F480411143CBF87A
:1017000000102068800207D5A26ED8F8001021F0E2
:1017100080711143C8F80010206840000CD5DBF838
:10172000001021F40041CBF80010DBF80010D4F8D1
:10173000B8201143CBF800102068002807DA0C48C5
:10174000226D0838016821F040511143016000E02A
:1017500014E02068000208D5D4F88820DAF80010D8
:1017600021F440011143CAF8001086B1012003E0C2
:1017700054440258CFFFFF00BDE8FC9FE26FDAF847
:10178000001021F440711143CAF80010A2E70020B4
:10179000EDE700002DE9F05F04000F467ED0DFF892
:1017A0003882D8F8000000F00F00B8420CD2D8F808
:1017B000001021F00F013943C8F80010D8F80000DC
:1017C00000F00F00B84269D12078844D40070AD557
:1017D0002069296801F07001884204D9296821F044
:1017E00070010143296020787C4E361D00070AD520
:1017F0006069316801F07001884204D9316821F0D4
:101800007001014331602078C0060AD5A0693168B3
:1018100001F4E061884204D9316821F4E0610143B8
:1018200031602078DFF8B4B180060BF1080B0CD5DD
:10183000E1695846DBF8002002F07002914204D9B9
:10184000026822F070020A430260207880070AD5FD
:10185000E068296801F00F01884204D9296821F065
:101860000F01014329602078C0073ED05B49A26880
:101870002868183920F470601043286060680228D6
:1018800018D0032819D00968012819D04907002960
:101890004ADADFF848A1AAF1080A00E044E0DAF8E1
:1018A000002022F007020243CAF80020FEF7CAFE19
:1018B000814612E009688903E9E709688901E6E7DA
:1018C000C905E4E7FEF7BEFEA0EB090141F288304E
:1018D000814202D90320BDE8F09F6168DAF8000078
:1018E00000F03800B0EBC10FECD1207880070AD5AA
:1018F000E068296801F00F01884204D2296821F0CC
:101900000F0101432960D8F80010404601F00F0193
:10191000B9420BD9016821F00F0139430160006819
:1019200000F00F00B84201D00120D4E72078400732
:101930000AD52069296801F07001884204D229681B
:1019400021F0700101432960207800070AD5606901
:10195000316801F07001884204D2316821F07001D1
:10196000014331602078C0060AD5A069316801F4CE
:10197000E061884204D2316821F4E06101433160C2
:10198000207880060CD5E1695846DBF8002002F08B
:101990007002914204D2026822F070020A4302608F
:1019A00000F06CF80E492A682B68C2F3032203F09A
:1019B0000F038A5CC95C02F01F0201F01F01D040D6
:1019C000084A20FA01F111600749086007480068D9
:1019D000BDE8F05FFEF772BE0020005218440258C6
:1019E0002439000804000024000000240C00002416
:1019F00030B500F043F80B4A0B490C4B15681468DE
:101A0000C5F3032204F00F048A5C095D02F01F0293
:101A100001F01F01D040064A20FA01F11960106060
:101A2000084630BD18440258243900080400002438
:101A30000000002400B5FFF7DBFF05490968054AEF
:101A4000C1F30211515C01F01F01C84000BD00004C
:101A50001C4402582439000800B5FFF7C9FF0549A6
:101A60000968054AC1F30221515C01F01F01C84019
:101A700000BD00001C44025824390008454970B5D7
:101A800045480968434B103B11F0380208D001115A
:101A9000082A03D0102A0BD0182A0BD0084670BD94
:101AA00019688906FBD51968C1F3C101C84070BD2A
:101AB0003A4870BD3749374D18310C1D24350A6836
:101AC000096826682D6802F0030406F00102C1F3DC
:101AD0000511C5F3CC0515FB02F200EE102AB8EE95
:101AE000400AE9B32F4ADFED2E0AB7EE001A6CB1B7
:101AF000DFED2D1A012C01D0022C43D002EE101A7A
:101B00001068F8EE422A81EEA22A1EE01C68A406A4
:101B100011D51B6801EE901A1168C3F3C103F8EEEA
:101B2000612AD84001EE900AC1F30800F8EE611A6C
:101B300081EEA22A0BE001EE901ADFED1C2A00BF15
:101B4000F8EE611A106882EEA12AC0F3080001EED7
:101B5000900AF8EE611A40EE201A31EE810A00E098
:101B600015E022EE000A1068C0F34620401C00EE8B
:101B7000900AF8EE600A80EE201ABCEEC10A10EE60
:101B8000100A70BD01EE901ADFED092AD8E7002097
:101B900070BD0000104402580090D00340787D01D1
:101BA00000000039304402580024744A0024744C68
:101BB00020BCBE4B2DE9F05F04007DD0FF4F2078A4
:101BC000FE4D1837DFF8F493103DC00748D0D9F820
:101BD0000000396800F03800102815D0182803D10B
:101BE00001F0030002280FD06068B0F5803F12D0EA
:101BF00010B1B0F5A02F18D0286820F480302860EC
:101C0000286820F4802009E02868800328D56068CF
:101C10000028D2D024E0286840F480302860606832
:101C200088B1FEF70FFD064609E0286840F48020E1
:101C30002860F0E7FEF706FD801B64286FD828684F
:101C40008003F7D50CE0FEF7FDFC064605E000BF7B
:101C5000FEF7F8FC801B6428F0D828688003F7D4CE
:101C6000207841F20308D54E0C3E800769D5D9F89B
:101C70000000396810F038000ED0182801D188070C
:101C80000AD0E06890B3296821F019010143296066
:101C9000FEF7D8FC824631E02868400702D5E068AC
:101CA00000288AD0E168286820F0190008432860DD
:101CB000FEF7C8FC824607E0DFE000BFFEF7C2FC8B
:101CC000A0EB0A000228B9D828684007F6D500BF63
:101CD000FEF7B2FC40451BD82069402812D031687D
:101CE00021F47C3141EA003030602AE018E000BF86
:101CF000FEF7A8FCA0EB0A0002289FD8286840073E
:101D0000F6D5E5E7306820F47C3040F40030EBE7AE
:101D1000207C316821F0FE4141EA0060E4E70DE1FA
:101D2000286820F001002860FEF78CFC824605E060
:101D3000FEF788FCA0EB0A0002288DD8286840072F
:101D4000F6D42078C0065DD5D9F80000DFF86CB273
:101D5000396800F03800ABF1040B082810D01828BF
:101D600003D101F0030001280AD0E06900282868A7
:101D700038D040F080002860FEF764FC824623E003
:101D80002868C00523D5E069802876D11FE0206A45
:101D9000202821D0316821F0F84141EA806030608C
:101DA00030E000BF94F82010DBF8002022F07C52D5
:101DB00042EA0161CBF8001024E000BFFEF742FCCC
:101DC000A0EB0A00022898D82868C005F6D5FEF7CF
:101DD00033FC4045E6D8DAE7306820F0F84040F0C0
:101DE0008040DCE720F080002860FEF72BFC0646F0
:101DF00005E000BFFEF726FC801B02289DD828685E
:101E0000C005F7D42078000729D56C486169643093
:101E100000298046016811D041F001010160FEF700
:101E200011FC064605E000BFFEF70CFC801B0228F3
:101E3000C9D8D8F800008007F6D510E021F00101DC
:101E40000160FEF7FFFB064605E000BFFEF7FAFB68
:101E5000801B022872D8D8F800008007F6D42078BA
:101E6000800623D5A0690028286810D040F480504F
:101E70002860FEF7E7FB064605E02CE1FEF7E2FBF3
:101E8000801B02285AD828688004F7D50EE020F479
:101E900080502860FEF7D6FB064604E0FEF7D2FB32
:101EA000801B02284AD828688004F7D4207840078D
:101EB0004FD5DFF80C81D8F8001041F48071C8F8D4
:101EC0000010FEF7BFFB064605E000BFFEF7BAFBB9
:101ED000801B642832D8D8F80000C005F6D5374EEC
:101EE000A068603601280AD008B1052813D03068F0
:101EF00020F001003060306820F0040002E030681B
:101F000040F001003060A06841F2883A90B1FEF7DD
:101F100099FB80460AE0306840F004003060EEE74C
:101F2000FEF790FBA0EB0801514507D83068800709
:101F3000F6D50EE0FEF786FB804607E084E000BFA2
:101F4000FEF780FBA0EB080151457DD83068800783
:101F5000F6D4606AB0B3DFF86480D9F8001008F1F5
:101F60002008C1F3C20103296FD00228286820F09D
:101F70008070286003D0FEF765FB044680E0FEF722
:101F800061FB064605E000BFFEF75CFB801B0228F4
:101F900073D828688001F7D4E26A40F2F3313868D8
:101FA00054F8283F884340EA021018433860217BE8
:101FB0004FF4FE0C22894FF0FE4704E01044025813
:101FC0000048025889E0208A4902521E267DA1F568
:101FD000007189B2401EC2F308021143761E0CEA5A
:101FE000004001433E4807EA066211433C4AC8F8F4
:101FF00000100832016821F00101016011684FF6FC
:10200000F876236AB14341EAC30111600168A2690D
:1020100021F00C01114301600168E26921F0020125
:1020200011430160016841F480310160016841F4AD
:1020300000310160016841F480210160016841F0D4
:1020400001010160286801E017E01DE040F08070A8
:102050002860FEF7F7FA044605E000BFFEF7F2FA43
:10206000001B022809D828688001F7D535E000BF99
:10207000FEF7E8FA001B022802D90320BDE8F09F12
:1020800028688001F4D428E039680128D8F80000D5
:1020900021D0A26A01F0030393421CD1E26AC1F38A
:1020A00005118A4217D1216BC0F30802491E8A42EA
:1020B00011D1616BC0F34622491E91420BD1A16B35
:1020C000C0F30642491E914205D1E16BC0F30660A0
:1020D000491E814201D00120D0E70020CEE7000058
:1020E0002C440258401EB0F1807F10B501D301206E
:1020F00010BD4FF0E02460610F21601701F0D6F9A8
:102100000020A0610721216110BD30B590F880103A
:10211000012918D0012280F880202421C0F88410E1
:102120000022202450F8641B0B680D6823F0005334
:1021300025F001050D60026050F8641C0B6004621C
:102140000277104630BD022030BD70B5044690F8CD
:10215000800001281DD0012284F880202420C4F8AA
:10216000840020680568026822F00102026020688D
:10217000826822F060620A438260204600F094FE8A
:102180002268202100201560C4F8841084F88000A3
:1021900070BD022070BD70B5044690F88000012823
:1021A0001DD0012284F880202420C4F884002068F7
:1021B0000568026822F0010202602068826822F04D
:1021C00060420A438260204600F06EFE22682021B1
:1021D00000201560C4F8841084F8800070BD0220CF
:1021E00070BD10B5040003D0D4F8840010B107E02E
:1021F000012010BD002084F88000204600F026F861
:102200002420C4F884002068016821F001010160E5
:10221000204600F0FFFE0128EBD0A06A10B1204656
:1022200000F064FE2068416821F49041416020681C
:10223000816821F02A0181602068016841F0010174
:1022400001602046BDE8104000F0B4BE10B5B6B045
:10225000044614212FA8FEF786F8BC216846FEF735
:1022600082F818492068884229D10420009000246F
:1022700068462494FEF724FE08B1FEF7B3F812482E
:10228000016841F008010160006800F00800349026
:102290000D481438016841F00101016000682FAB5E
:1022A000022100F0010034904FF4C060032283E863
:1022B000130006482FA9CDE93242FEF7A7F836B041
:1022C00010BD0000000C0058F444025800000258F1
:1022D0002DE9F8430446D0F884001F4616460D4603
:1022E000202852D1DDB1D6B194F8800001284CD01D
:1022F000012084F8800021224FF00008C4F88C806F
:10230000C4F884201834FEF79DF9814654F8100C67
:10231000A687E687183CB0F5805F03D004E0012073
:10232000BDE8F883206920B12E46002584F880801E
:1023300010E00026FAE78021204601F041F8B8B904
:10234000C6B116F8010B21688862B4F85600401E29
:10235000A4F85600B4F856004B464FF00002009720
:102360000028E8D14FF04001204601F029F838B1AB
:102370000320D5E735F8020B2168C0F30800E3E736
:102380002020C4F884000020CAE70220C8E7FEE746
:10239000194808B5016841F010010160016801F0B9
:1023A00010010091016841F004010160016801F031
:1023B00004010091016841F080010160016801F0B1
:1023C00080010091016841F002010160016801F0A3
:1023D00002010091016841F008010160016801F00B
:1023E00008010091016841F001010160006800F0FE
:1023F0000100009008BD0000E04402581848002188
:1024000010B5164C0C224FF4E1330460C0E90131E1
:10241000C160C0E90412816101624162816241666A
:10242000FFF7DFFE08B1FDF7DDFF0D480021FFF7E4
:10243000B2FE08B1FDF7D6FF09480021FFF785FE7F
:1024400008B1FDF7CFFF0648FFF75FFE002803D075
:10245000BDE81040FDF7C6BF10BD0000000C0058DD
:102460001C0000240D48102270B50B4E00210123E2
:1024700006601501C0E901321624C0E90551C161A9
:102480000162C0E90324FEF73DFA002803D0BDE84D
:102490007040FDF7A7BF70BD00500052AC00002493
:1024A000FEE7FEE77047000030B595B0012200213D
:1024B0000524079413061502CDE90D51CDE90F133C
:1024C0000C9110231291940513911491CDE90112EE
:1024D000CDE90332CDE9051401AA0346044807A952
:1024E000FEF776F9002800D0012015B030BD0000BD
:1024F000AC000024F0B595B000244FF480700621A4
:102500000691CDE90C044FF47A750E94124806A991
:102510002A460F940B94119412941394FEF7AEF97B
:10252000B0B902200090012143051022052606962D
:10253000CDE90221CDE90443C7050190CDE90F7132
:10254000054806A92B466A46FEF742F9002800D046
:10255000012015B0F0BD0000AC0000242DE9F043CF
:102560004B6A4FF040652BB1AA4203D004688B6AD6
:102570005B1E23618B69002B68D00C6AB4B30368BF
:102580008C68DC61CC69FCB1D1E90B38D1F824C08E
:102590004E6B8F8A43EA080346EA0C0633430E6A01
:1025A00043EA8743D1E9037C43EA0C0333438E6952
:1025B0003B430F682343046833433B4365E00068B3
:1025C00049688161BDE8F083D1E90B364F6A4C6BF5
:1025D0008D8A33433C430E6923430C6A43EA8543A7
:1025E0008D693343096823432B4362E0FFE7CC69DD
:1025F000B4F1000918D0D1E90B484F6A4E6BB1F81D
:1026000014C044EA08043E430F683443CE6844EAE9
:102610008C44344344EA09041C4303683C43144398
:10262000AA425C61CBD1CDE7D1E90B464F6A4D6B35
:10263000B1F814C034433D4300682C43096844EAB0
:102640008C441C430C4314434461BBE70B6AABB39B
:1026500003688C68DC61CC69E4B1D1E90B38D1F84E
:1026600024C04E6B8F8A43EA080346EA0C063343C4
:102670000E6A43EA8743D1E9037C43EA0C03334300
:102680008E693B432343046833431343AA42636187
:1026900095D197E7D1E90B364F6A4C6B8D8A33435E
:1026A0003C430E6923430C6A43EA854389693343FB
:1026B000234300680B431343436183E7FFE7CC697F
:1026C00084B1D1E90B384F6A4E6BB1F814C043EABC
:1026D00008033E433343CE6843EA8C4333432343EA
:1026E0000468D2E74C6A002C9DD0D1E90B368F8A62
:1026F0004D6B0168334325432B4343EA8740104326
:1027000048615FE730B520248FB0002162014FF4AB
:102710008075D3000393CDE907210991CDE9051513
:102720000B91CDE900400C910D91FFF7E3FE60B9EC
:1027300007484FF47A726946FEF7A0F828B94FF4BB
:10274000FA70FFF7B1FE002800D001200FB030BDB5
:10275000AC00002410B58EB000204FF480710890BA
:102760006622CDE9061005904FF47A740990694607
:102770000B900C900D900B4800922246FEF77EF8CD
:1027800060B999200090074822466946FEF776F81E
:1027900020B92046FFF788FE002800D001200EB0A7
:1027A00010BD0000AC000024F0B514000D468FB041
:1027B000074605D002200EA900F068F880BB02E0B1
:1027C00000200FB0F0BD9DF83800800701D4042030
:1027D000F7E74FF4806E4FF06B0C4FF480760020DB
:1027E000CDE9066E0DF1200E7101039108230593CA
:1027F0004FF0407269468EE815000B904FF47A76E0
:102800000C9032460D900748CDE900C5FEF736F82A
:1028100030B9044832463946FEF740F90028D0D096
:102820000120CEE7AC00002430B58FB000244FF477
:1028300080709F23009301040594CDE906040322D0
:102840001148CDE90841CDE90A244FF47A7569466B
:102850002A460C940D94FEF711F830B90A480EA9D7
:102860002A460E94FEF71AF910B100200FB030BDC1
:102870009DF838209DF839009DF83A10120442EA7C
:1028800000200843F2E70000AC00002430B5012826
:102890000D468FB004D0022804D0032804D022E0D3
:1028A000052002E0352000E0152000900020059072
:1028B0004FF4807101230A04CDE90610CDE90A30F6
:1028C000CDE908024FF47A740C900D902246074827
:1028D0006946FDF7D3FF30B9044822462946FEF782
:1028E000DDF8002800D001200FB030BDAC0000247E
:1028F00070B596B00546022014A9FFF7C7FF70BB5C
:102900009DF850004FF002064FF0000400F0020264
:1029100015B1B24202D00FE0A24202D1002016B09F
:1029200070BD20F0020000BFC1B28DF8500002203F
:1029300000F0A6F898B902E040F00200F4E74FF486
:1029400080703521009102040594CDE906040B94B2
:10295000CDE908420C940D9415B1022001E012E07B
:102960000020012110228B05CDE910210EAA694615
:10297000CDE91243CDE90E0604484FF47A73FDF712
:1029800027FF0028CBD00120C9E70000AC000024BD
:102990002DE9F041984616460F460446069D08E08C
:1029A000681C06D0FDF74EFEA0EB0800A8420AD82E
:1029B0004DB120688068384000D00120B042EFD18E
:1029C0000020BDE8F081042084F84100606C40F0F4
:1029D000010060640120F4E72DE9F0438FB08146E7
:1029E000E2B3002002E000BF00F580708842FBD90E
:1029F000441A944200D914460223009300205E0238
:102A00004FF480751F0303974FF0807CCDF824C0EE
:102A1000CDE90760CDE9050501EB02080E464FF44C
:102A20007A770B900C900D900196BCB10A94FFF749
:102A300061FD78B911483A466946FDF71FFF48B96C
:102A40000E483A464946FEF789F818B93846FFF766
:102A50002BFD20B101200FB0BDE8F0830BE0264430
:102A600006F580704045A14402D9A8EB060400E0B9
:102A70002C464645D8D30020EDE70000AC000024EA
:102A800033B501284FF001058FB004D0022804D0DF
:102A9000032804D028E0009503E0312000E0112055
:102AA0000090FFF727FDF8B9002005904FF48071E2
:102AB0004FF47A740A04CDE90610CDE90A50CDE945
:102AC00008020C9022460D9069460948FDF7D6FE93
:102AD00050B9074810A92246FEF740F820B9204611
:102AE000FFF7E2FC002800D0012011B030BD00004B
:102AF000AC0000242DE9F047454D044689464FF0CF
:102B0000000A2868C04380070AD0414E283E30683A
:102B100020F080603060FDF795FD0746B04608E084
:102B20000120BDE8F08700BFFDF78CFDC01B022827
:102B300067D8D8F800000001F6D4206829684FF45F
:102B4000FE0721F47C313E0241EA00302860207A01
:102B5000A389B4F804C040022D4D2D495B1E227C90
:102B6000ACF1010C1035091DA0F5007080B2521EA9
:102B7000CCF3080C07EA034340EA0C00184306EACA
:102B80000262104328600868626920F0C0001043A8
:102B900008600A68A06922F0200202430A60281D2A
:102BA0000A6822F010020A6002684FF6F873E469BE
:102BB0009A4342EAC40202600868B9F1000F40F08B
:102BC00010020A6011D00868B9F1010F11D040F469
:102BD00000100860D8F80000444640F08060C8F853
:102BE0000000FDF72FFD05460DE0086840F40020C9
:102BF000EFE740F48010ECE7FDF724FD401B0228CE
:102C000001D903208DE720680001F5D5504688E7FB
:102C1000284402582DE9F047454D044689464FF0B7
:102C2000000A2868C04380070AD0414E283E306819
:102C300020F080503060FDF705FD0746B04608E003
:102C40000120BDE8F08700BFFDF7FCFCC01B022897
:102C500067D8D8F800008000F6D4208829684FF49F
:102C6000FE0721F07C713E0241EA00502860207A84
:102C7000A389B4F804C040022D4D2D495B1E227C6F
:102C8000ACF1010C1835091DA0F5007080B2521E80
:102C9000CCF3080C07EA034340EA0C00184306EAA9
:102CA0000262104328600868626920F440601043A3
:102CB00008600A68A06922F4007202430A60281DB5
:102CC0000A6822F480720A6002684FF6F873E469B9
:102CD0009A4342EAC40202600868B9F1000F40F466
:102CE00080720A6011D00868B9F1010F11D040F06C
:102CF00080700860D8F80000444640F08050C8F862
:102D00000000FDF79FFC05460DE0086840F48000D8
:102D1000EFE740F40000ECE7FDF794FC401B0228CD
:102D200001D903208DE720688000F5D5504688E75B
:102D3000284402587047FDF78BBC000030B59DB0A9
:102D40004C216846FDF70FFB202113A8FDF70BFB74
:102D50000220FDF713FD1B490A681B4822F00102FF
:102D60000A600968016821F4404141F48041016032
:102D70000168002501F440411B9101688904FCD5DC
:102D8000402409950220009001216846CDE90314F2
:102D9000FEF710FF08B172B6FEE73F20CDE913053C
:102DA0004FF480611595CDE9165413A81A94CDE916
:102DB00018410121FEF7EEFC002801D072B6FEE7B3
:102DC0001DB030BD2C040058184802582C48F0B5EE
:102DD0002C4A016841F470010160106800F00F0096
:102DE000072804D2106820F00F00C01D106026498B
:102DF0000020254C10340B68244D43F001030B6078
:102E000020600B682B400B60136803F00F03072B47
:102E100004D9136823F00F03DB1D13601A4C1C4AFE
:102E200018341C4B261D371D2060174C1A4D2834B2
:102E30003060261D3860371D23603B1D35601C1D2A
:102E40003A60251D2E1D1860331D226028603260F7
:102E500018600A680C4B114C22F4802260330A601F
:102E6000186020686FF30F00B0F1005F03D20C49C7
:102E70000120C1F8080143F2D2000A490860F0BD00
:102E800088ED00E000200052004402587FEDF6EA91
:102E900080020101000202020000FF010010005C3C
:102EA000008000510040005230B5416EB9B1016858
:102EB0000D4B03F108048A688968C2F34262490F26
:102EC0005D5C615C2D01B5FBF1F1A0F86A10995CC5
:102ED000A25C0901B1FBF2F1A0F8681030BD01213C
:102EE000A0F86A10F8E700004C39000890F82810A4
:102EF000C90706D00168C36A4A6822F400321A433F
:102F00004A6090F82810890706D50168036B4A6863
:102F100022F480321A434A6090F82810490706D5F7
:102F20000168436B4A6822F480221A434A6090F891
:102F30002810090706D50168836B4A6822F400420D
:102F40001A434A6090F82810C90606D50168C36B79
:102F50008A6822F480521A438A6090F82810890601
:102F600006D50168036C8A6822F400521A438A600D
:102F700090F82810490611D50168436C4A6822F47C
:102F800080121A434A60416CB1F5801F06D1016876
:102F9000836C4A6822F4C0021A434A6090F82810F1
:102FA000090606D50168C26C486820F40020104369
:102FB00048607047F8B500260446C0F88C60FDF7FD
:102FC00041FB054620686FF07E470068000708D582
:102FD00000222B464FF400112046009700F0F0F934
:102FE00060B92068006840070AD500222B464FF4DC
:102FF00080012046009700F0E3F908B10320F8BDF6
:103000002020C4F88400C4F88800E666002084F814
:103010008060F8BD2DE9F04304468068D84E87B043
:10302000D84B2168D4E90427D4F81CC010430A689F
:10303000002547EA0C073843324002430A60206803
:10304000E268416821F44051114341602268A1695E
:103050009A4201D0206A01439768DFF82CC3CB4E17
:10306000CB4807EA0C070F4397602168676ACA6A72
:1030700022F00F023A43CA622268B2420ED10068BF
:1030800000F03800182873D047DCB8B3082879D08E
:1030900010286FD178E028287ED17BE0BD498A4294
:1030A00009D1006800F00700062875D2DFE800F0BB
:1030B000546A6C6E7072B8498A4209D1006800F097
:1030C0000700062868D2DFE800F0475D5F616365AE
:1030D000B2498A4209D1006800F0070006285BD295
:1030E000DFE800F03A5052545658AD498A420BD1AD
:1030F000006800F0070006284ED200E010E0DFE88C
:1031000000F02B4143454749A6498A420AD100684D
:1031100000F03800182839D0B7DD2028BBD13CE0BA
:1031200001203AE0A0498A4209D1006800F0070076
:10313000062831D2DFE800F01026282A2C2E9B49E1
:103140008A420BD1006800F00700062824D2DFE88D
:1031500000F003191B1D1F2100201EE09A421BD105
:103160008B48001D006800F00700062814D202E01A
:103170000CE007E010E0DFE800F0030507090B0DA5
:1031800002200AE0042008E0082006E0102004E005
:10319000202002E0402000E080208549DFF81482F2
:1031A0009A42854A4FF400434FEA21174FF0000638
:1031B0004ED110281AD006DC022809D004280BD0E2
:1031C00008287CD10DE020283ED0402877D13DE072
:1031D000FDF720FD014610E06846FDF72DFD019941
:1031E0000BE003A8FDF7CAFD049906E0106880060D
:1031F00005D51068C0F3C100C140002970D0606AD5
:10320000676838F8102007EB4703B1FBF2F0834200
:1032100055D8B0EB073F52D8002308461946FDF7B2
:1032200057F802467808130E120243EA01211018DB
:103230003A4671410023FDF74BF8604AA0F5407112
:1032400091423CD821688FE03946D8E71946D6E745
:10325000D4F81CC04FF6EF799C4546D1082819D008
:1032600005DC58B101280CD0042875D10DE01028D8
:1032700015D0202835D040286ED134E0FEF7DAFB97
:1032800001E0FEF7E9FB014610E06846FDF7D4FCDB
:1032900001990BE003A8FDF771FD049906E01068A1
:1032A000800604D51068C0F3C100C140C1B1636A93
:1032B000606838F81330B1FBF3F1490000E04BE0EF
:1032C00001EB5001B1FBF0F0A0F11001494543D8EA
:1032D0004FF6F0732168C0F342021840104343E0F8
:1032E00043E03946E3E71946E1E7082819D005DC51
:1032F00058B101280CD004282ED10DE0102815D08B
:1033000020282BD0402827D12AE0FEF793FB01E0AC
:10331000FEF7A2FB014610E06846FDF78DFC01991F
:103320000BE003A8FDF72AFD049906E0106880066B
:1033300004D51068C0F3C100C140B1B1636A6068D0
:1033400038F81330B1FBF3F101EB5001B1FBF0F0B1
:10335000A0F11001494505D9012506E03946EDE700
:103360001946EBE7216880B2C8600120A4F86A0022
:10337000A4F8680028462667666707B0BDE8F083B2
:10338000F369FFCF000C0058FFF4FF11001001405B
:10339000544402580044004000480040004C0040A3
:1033A000005000400014014000780040007C0040C4
:1033B0000090D0033439000800440258FFFC0F008D
:1033C0002DE9F0479A4617460E460446089D4FF0F1
:1033D00000094FF020084CE0681C4AD0FDF732F994
:1033E000A0EB0A00A8422AD84DB32068016849071B
:1033F0003FD5C069C04300053BD421684FF400604D
:103400000862216851E8000F20F4D07041E8000202
:10341000002AF6D12068083050E8001F21F0010191
:1034200040E80012002AF5D1C4F8848084F8809026
:10343000C4F88880C4F88C800320BDE8F087206839
:1034400050E8001F21F4D07140E80012002AF6D1A4
:103450002068083050E8001F21F0010140E8001208
:10346000002AF5D1C4F8848084F88090C4F888805C
:10347000E2E72068C06936EA000004D00020B842C4
:10348000AAD00020D9E70120F9E7FEE70FB4054BE9
:1034900010B503A9044A029800F028F810BC5DF8A2
:1034A00014FB0000AD3700081800002409070028AD
:1034B0004FEA116104DB00F1E02080F8001470474E
:1034C00000F00F0000F1E02080F8141D704702E0CA
:1034D00008C8121F08C1002AFAD17047704700209F
:1034E00001E001C1121F002AFBD170472DE9FF4FF7
:1034F0008DB09B460F460446002606E025280BD0DB
:103500005A460F999047641C761C20780028F5D104
:1035100011B03046BDE8F08F0025A8460122984939
:1035200000E0054314F8013F203B02FA03F0084293
:10353000F7D120782E2817D114F8010F45F0040593
:103540002A280ED06FF02F022078A0F1300109292F
:103550000AD808EB880102EB410100EB0108641C6A
:10356000F2E757F8048B641C20786C280DD004DC3B
:103570004C2812D06A2811D104E074280DD07A2882
:103580000CD10AE045F4001507E0617845F4801598
:10359000814202D1641C05F58015641C2278692AD9
:1035A00045D008DC002AB3D0582A69D0632A10D04D
:1035B000642A08D13BE0702A67D0732A13D0752A99
:1035C0005CD0782A5CD010465A460F999047761CFA
:1035D000D3E017F8040B8DF8000000208DF80100EF
:1035E000E946012003E057F8049B4FF0FF306907DC
:1035F0004FF0000501D40AE06D1C45450DDA854207
:10360000FADB19F805100029F6D106E06D1C854299
:10361000FCDB19F805100029F8D12E4404E019F854
:10362000010B5A460F9990476D1EF8D2A5E00A206B
:103630000021CDE90801C5F3025002280DD001CFC9
:10364000C117031E71F100030DDA4FF0000CD0EB2F
:103650000C006CEB01012D2308E0FF1D27F007078C
:10366000F7E80201EDE72B0504D52B238DF8283070
:1036700001233BE0EB0739D02023F7E70A2000E0E5
:1036800010200021CDE9080107E01020002145F0BD
:103690000405CDE908014FF00808C5F302500228DF
:1036A0000FD001CF00214FF0000A2B071FD5702A41
:1036B0000DD0DDE908C38CF0100C5CEA030C0CD0D3
:1036C00015E0FF1D27F00707F7E80201EBE74022AE
:1036D0008DF828204FF0010A0BE050EA010306D0D4
:1036E00030238DF828308DF8292002239A46582A55
:1036F00004D024A20DF120090B9209E026A2F9E7DB
:10370000DDE90823FCF7E4FD0B9B9B5C09F8013D18
:1037100050EA0102F4D1ADEB0900203008906807AF
:1037200001D44FF001080899884502DDA8EB01009B
:1037300000E000208046002506E00AA85A46405DC9
:103740000F9990476D1C761C5545F6DB04E0302040
:103750005A460F999047761CB8F10001A8F101086C
:10376000F5DC05E019F8010B5A460F999047761CD5
:103770000899481E08900029F4DC641CC5E6000086
:103780000928010030313233343536373839616237
:1037900063646566000000003031323334353637FB
:1037A00038394142434445460000000013B50448FF
:1037B000052301226946FEF78BFD00981CBD000021
:1037C0001C00002488B0FCF74BFFFFF7B7FAFEF7A8
:1037D000DFFDFEF713FEFEF745FE30A0FFF756FEB5
:1037E00000200090019002900390049005900690B4
:1037F0000790FEF7AFFF2BA0FFF748FEFFF714F886
:1038000001462CA0FFF742FE2EA0FFF73FFE314DF0
:1038100000246E46FCF78EFDC1B22FA03155FFF794
:1038200035FE04EA0500072802D11DA0FFF72EFE91
:10383000641C102CEED30020FEF764FF10226846B3
:103840000021FFF7C9F826A0FFF720FE4FF47A7099
:10385000FCF7CAFD26A0FFF719FE0120FFF748F884
:103860001022002104A8FEF79FFF014624A0FFF7C5
:103870000DFE002404AE26A0315DFFF707FE04EA2A
:103880000500072802D106A0FFF700FE641C102CDB
:10389000F1D321A0FFF7FAFDFEE70000776F726B0E
:1038A0000D0A0000436F6D706C65746564210D0A2C
:1038B0000000000072656164204A454445433A2592
:1038C000780D0A0057726974696E672064617461CB
:1038D0003A0D0A000700008030782578202000008B
:1038E0007772697465206F7665720D0A00000000BA
:1038F00052656164696E6720646174613A0D0A0003
:1039000051756164526561643A25640D0A000000D6
:10391000305825782020000072656164206F76653C
:10392000720D0A00000000000102030401020304FA
:1039300006070809010002000400060008000A004A
:103940000C00100020004000800000010101010374
:103950000701000008040204080101017C39000885
:10396000000000241C000000CE3400089839000834
:103970001C000024DC040000DE3400080090D003AA
:103980000090D003010000001000000000000000C3
:0839900000000000000000002F
:040000050800029954
:00000001FF
